:020000040800F2
:10000000FCFF0020811B0000791B0000791B000011
:10001000791B0000791B0000791B0000791B000090
:10002000791B0000791B0000791B0000791B000080
:10003000791B0000791B0000791B0000791B000070
:10004000791B0000791B0000791B0000791B000060
:10005000791B0000791B0000791B0000791B000050
:10006000791B0000791B0000791B0000791B000040
:10007000791B0000791B0000791B0000791B000030
:10008000791B0000791B0000791B0000791B000020
:10009000791B0000791B0000791B0000791B000010
:1000A000791B0000791B0000791B0000791B000000
:1000B000791B0000791B0000791B0000791B0000F0
:1000C000791B0000791B0000791B0000791B0000E0
:1000D000791B0000791B0000791B0000791B0000D0
:1000E000791B0000791B0000791B0000791B0000C0
:1000F000791B0000791B0000791B0000791B0000B0
:10010000791B0000791B0000791B0000791B00009F
:10011000791B0000791B0000791B0000791B00008F
:10012000791B0000791B0000791B0000791B00007F
:10013000791B0000791B0000791B0000791B00006F
:10014000791B0000791B0000791B0000791B00005F
:1001500001480068704700BFF400002083B0CDF86C
:1001600000E000F0FF031A09104603F00F021346E7
:1001700014E0194A02921FE0184A02921CE0184A41
:10018000029219E0174A029216E0174A029213E00F
:10019000164A029210E0164A02920DE00028E8D0BA
:1001A0000128E9D00228EAD00328EBD00428ECD0BB
:1001B0000528EDD00628EED0012212B29A40ADF803
:1001C000042002980A46BDF8041000F0C5FADDF8D4
:1001D00000E003B0704700BF00080140000C014080
:1001E000001001400014014000180140001C0140B3
:1001F0000020014081B0194900EA010108460022AF
:100200000EE0042022E0082020E010201EE0202044
:100210001CE040201AE0802018E040F2001015E0B9
:100220000F498842EDD00F498842ECD00E498842F0
:10023000EBD00E498842EAD00D498842E9D00D49F9
:100240008842E8D00C498842E7D010460B4909683B
:1002500041EA000209490A6001B0704700FCFFFF53
:1002600000080140000C0140001001400014014052
:1002700000180140001C01400020014018100240FD
:1002800082B0CDF800E0034619460191FFF760FF08
:1002900040F2E83100FB01F201990A601F49097838
:1002A000C1F30311C8B21E4909180878C0B21A1D5B
:1002B0001968C140116019490988C1F3022188B247
:1002C000174909180878C0B203F20802191D096815
:1002D000C140116011490988C1F3C22188B2104997
:1002E00009180878C0B203F20C02191D0968C14050
:1002F00011600A490988C1F3813188B20949091896
:100300000978C8B203F2100203F20C010968B1FBCC
:10031000F0F11160DDF800E002B070470410024017
:10032000981F0000B81F000081B0CDF800E081B236
:10033000034800F0FFF9DDF800E001B0704700BFAE
:100340000030014081B0CDF800E081B2034800F0F8
:10035000F1F9DDF800E001B0704700BF003800405F
:1003600081B0CDF800E0012252B23E490A6000F2AD
:1003700068010B686FF0006103EA0102144603F0A4
:100380000061C90E0B4602F00041B1F1004F02D1ED
:1003900035490A6801E035490A6804F47021090CFE
:1003A0000E464FF6FF7104EA01010D4604F44011B8
:1003B000B1F5401F0DD16FF0706102EA01010E46E8
:1003C0002A490A686FF070610A4028490A6032467B
:1003D00016E004F48011B1F5801F09D14FF003013C
:1003E000B140C94302EA010141F070610A4607E0E9
:1003F000610D090105FA01F1C9430A4042F070623A
:100400002BB1610D090105FA01F10A43FFE704F080
:100410000041B1F1004F02D113490A6001E01349D4
:100420000A6040F2000A81464FEA8A0109EB0101A5
:100430000968B1F1FF3F10D009F134014FEA8A0396
:10044000C91809680A4609EB0301096808461146FC
:10045000FFF784FE0AF1010AE6E7DDF800E001B0EB
:10046000704700BF000342421C00014004000140ED
:1004700081B0ADF800100146BDF800000B68C3F371
:10048000C01202B9FAE70A1D106001B07047FFFF01
:1004900081B000230360CB009BB242EA03030468EF
:1004A0009BB244EA03030360051D13141C462B682A
:1004B00064F382032B6000F21C0500242B6864F3B4
:1004C000CB232B600124036864F38613036001B01F
:1004D0007047FFFF89B0CDF800E0834698B28C46A4
:1004E000BDF824100A9E04ACADF80410ADF8080065
:1004F0002046FFF7C5FEBDF80800BDF80410644CA7
:10050000A34512D101256DB2624C2560624D634C4A
:100510002560634D634C2560634D644C2560644DDC
:10052000644C2560079C039456E0634CA34512D1AC
:1005300001256DB2614C2560614D584C2560614DBF
:10054000584C2560604D594C2560604D594C2560D4
:10055000069C039440E05E4CA34512D101256DB288
:100560005C4C25605C4D4D4C25605C4D4D4C2560D0
:100570005B4D4E4C25605B4D4E4C2560069C0394B4
:100580002AE0594CA34512D101256DB2574C256084
:10059000574D424C2560574D424C2560564D434CBB
:1005A0002560564D434C2560069C039414E0544C42
:1005B000A34511D101256DB2524C2560524D374CE7
:1005C0002560524D374C2560514D384C2560514DBA
:1005D000384C2560069C0394ADF80410ADF8080073
:1005E0003046FFF7BDFEBDF80800BDF804100BF162
:1005F000100500242C600BF110052C680C432C60B6
:100600000BF10C0500242C6018B140F4806080B21E
:10061000FFE70BF10C052C6804432C600BF10C0672
:100620000125346865F34D3434600BF10C06012567
:10063000346865F3C30434600BF10C06012534689B
:1006400065F3820434600BF1140500242C60039DD3
:10065000192465434FEA8C04B5FBF4F76424B7FB17
:10066000F4F42601350964246C433C1B240104F294
:1006700032056424B5FBF4F404F00F0446EA0404E4
:100680000BF10805A4B22C60DDF800E009B070475A
:100690000038014038034242110B000000010020E5
:1006A000FFFFFFFF04010020FFFFFFFF0801002004
:1006B000FFFFFFFF0C01002000440040C403424242
:1006C00069090000FFFFFFFFFFFFFFFFFFFFFFFFC4
:1006D00000480040C8034242C9090000FFFFFFFF75
:1006E000FFFFFFFFFFFFFFFF004C0040CC03424233
:1006F0000D0A0000FFFFFFFFFFFFFFFFFFFFFFFFEF
:1007000000500040D00342424D090000FFFFFFFFB0
:10071000FFFFFFFFFFFFFFFF81B0CDF800E081B2D8
:10072000034800F007F8DDF800E001B0704700BFB3
:10073000003C004081B000F20C02116000F208029F
:100740001368C3F3000202B9F8E700F20C02126862
:1007500090B201B07047FFFF81B0CDF800E08CB2DD
:100760001546774B00EA03031E461846FFF742FD85
:10077000B4F1FF0F0CD1734B9D4203D14FF03333D3
:100780003360D9E0422D03D14FF044333360D3E0DE
:100790004FF6FF739C4214D16A4B9D4207D14FF034
:1007A00033333360341D4FF033332360C4E0422DC4
:1007B00007D14FF044333360341D4FF0443323608E
:1007C000BAE00021002005F001030BB100211DE07B
:1007D00005F0020333B105F4C0730BB1082100E04A
:1007E000042113E005F0040333B105F020030BB13D
:1007F000042100E0002109E005F0080333B105F011
:1008000020030BB10C2100E00821FFE74E4B05EA65
:1008100003030BB1032009E005F400730BB10220C0
:1008200004E005F480630BB10120FFE705F00C0341
:100830000BB10143FFE704F0FF039BB2002B3BD059
:10084000376800201FFA84F832462E4608282CD23A
:100850004FF0010303FA00F408EA0403A34222D193
:1008600085004FF00F03AB40DB4307EA030401FAB6
:1008700005F344EA03031D4606F48173B3F5817F53
:1008800005D102F214044FF001038340236006F007
:100890008203822B05D102F210044FF00103834042
:1008A00023602F46FFE7401CD0E717601FFA88F04F
:1008B0000F463146164602E00F462946A0B2B0F177
:1008C000FF0F39D9331DD3F800800022082A30D217
:1008D00002F208044FF0010303FA04F400EA0403EF
:1008E000A34224D195004FF00F03AB40DB4308EA4D
:1008F000030807FA05F348EA030801F48173B3F526
:10090000817F07D106F2140502F208044FF00103BB
:10091000A3402B6001F08203822B07D106F2100561
:1009200002F208044FF00103A3402B60FFE7521CC2
:10093000CCE7331DC3F80080DDF800E001B070475C
:1009400000FCFFFF140008000008080081B0CDF88B
:1009500000E081B20348FFF78BFDDDF800E001B055
:10096000704700BF0050004081B0CDF800E081B278
:100970000348FFF77DFDDDF800E001B0704700BFE0
:100980000044004081B0CDF800E081B20348FFF799
:10099000D1FEDDF800E001B0704700BF003001403B
:1009A00081B0CDF800E0019D2C4610B408B493B29C
:1009B0008AB201460348FFF78DFD02B0DDF800E082
:1009C00001B070470044004081B0CDF800E081B232
:1009D0000348FFF74DFDDDF800E001B0704700BFB0
:1009E0000048004081B0CDF800E0019D2C4610B4D5
:1009F00008B493B28AB201460348FFF76BFD02B018
:100A0000DDF800E001B070470038014081B0CDF85A
:100A100000E081B20348FFF72BFDDDF800E001B0F4
:100A2000704700BF004C004081B0CDF800E0019D50
:100A30002C4610B408B493B28AB201460348FFF7BB
:100A400049FD02B0DDF800E001B070470048004009
:100A500081B0CDF800E081B20348FFF76BFEDDF80E
:100A600000E001B0704700BF003C004081B0CDF80D
:100A700000E081B20348FFF75DFEDDF800E001B061
:100A8000704700BF0038004083B0CDF800E08DF81B
:100A9000040002910B4C0C4B1C600C4C0C4B1C606A
:100AA000012464B20B4B1C601046FFF759FC029AFC
:100AB0009DF804100848FFF7EBFCDDF800E003B0F8
:100AC000704700BF19070000F8000020510A00001D
:100AD000FC000020BC034242003C004081B0CDF845
:100AE00000E04FF0420289B2FFF736FEDDF800E089
:100AF00001B0704781B0CDF800E0044A89B2FFF739
:100B00002BFEDDF800E001B0704700BF14000800C4
:100B100081B0CDF800E081B20348FFF7A9FCDDF811
:100B200000E001B0704700BF0038014083B0CDF84D
:100B300000E0ADF808100190BDF80830BDF80820BD
:100B4000521EADF808204BB10020064C2468A04787
:100B5000019A1070019A521C0192EDE7DDF800E055
:100B600003B07047E8000020026803490A60011DD5
:100B70000A6802490A607047E4000020E80000208B
:100B800001490860704700BFB081224201490860F6
:100B9000704700BFB081224201490860704700BF22
:100BA000AC01224201490860704700BFB0012242F7
:100BB00001490860704700BF9881214201490860DF
:100BC000704700BF9C81214201490860704700BF07
:100BD0009881224201490860704700BF94812242F7
:100BE00000F230011C310A6803490A6000F2080172
:100BF0000A6802490A607047F0000020EC000020FB
:100C000081B0FAB590EA02064CBF4FF000464FF0B3
:100C100000064FEA00214FEA40031B0E12BF41F0CD
:100C200000414FF000002CE0FF2B26D04FEA0224B9
:100C30004FEA42052D0E12BF44F000444FF0000071
:100C40001FE0FF2D19D05B19A1FB0454002C5CBFE1
:100C500064005B1E803424BF5B1C64087E3BDCBFE9
:100C60004FF000000DE0FF2B07D24FEA142030F4C4
:100C7000000040EAC350304303E0FF27FF0546EA87
:100C80000700BDE8FA4001B07047FFFF81B0FAB538
:100C900090EA02064CBF4FF000464FF000060102FA
:100CA00043001B0E12BF41F000414FF000003BE03B
:100CB000FF2B35D05FEA02245FEA42055FEA156543
:100CC00011BF44F000444FF0FF4030432CE0FF2DB3
:100CD00026D05B1B0020202764084908A14240EB76
:100CE000000028BF091B7F1E04D0002918BF49003F
:100CF000F4D1B84010F0004F04BF4000B3F101033D
:100D000080302CBF5B1C40007F33DCBF4FF0000005
:100D10000AE0FF2B04D2400A40EAC350304303E00C
:100D2000FF27FF0556EA0700BDE8FA4001B070470B
:100D300081B00091014600980B461C465A1C15468E
:100D40000346421C10461A78227022780AB12B46BC
:100D5000F3E7084601B0704781B00A4681B200202F
:100D60008DB21146052805D20B1820221A70401C9E
:100D7000C0B2F7E70B1800221A70401EC0B20C1860
:100D80000A23B5FBF3F203FB125292B23032227007
:100D90000A22B5FBF2F292B295B202B902E0401E0D
:100DA000C0B2ECE701B0704781B0002808BF0FE087
:100DB00002B54FF09E0202D4521E4000FCD5803096
:100DC0002CBF521C4000400A40EAC250BDE802401D
:100DD00001B0704781B010B5904208BF2AE040EAE8
:100DE00002044FEA4404002C08BF23E0440004D16D
:100DF000944201D4A41C012C1CE04FEA40044FEAA9
:100E00001464FF2C0AD14FEA42044FEA1464FF2C09
:100E100004D14FEAD274B4EBD0340BE0002A06D4EC
:100E2000002802DC0024012C04E0904202E00028AB
:100E300048BF8242BDE8104001B0704783B0CDF892
:100E400000E08AB2014690B283B2421E90B26BB10A
:100E50000A78D4B2ADF804000291A0B2054C24681F
:100E6000A0470299BDF80400491CEDE7DDF800E059
:100E700003B07047E400002082B0CDF800E001AA82
:100E800040F08001117000200C4C2468A04701A99B
:100E900008460121FFF7D2FF0DF1050108460121A7
:100EA000FFF744FE0120054C2468A0470DF1050121
:100EB0000978C8B2DDF800E002B07047EC0000200D
:100EC00081B0CDF800E00178CCB2A0B2034C246828
:100ED000A0470020DDF800E001B07047E0000020EE
:100EE00001490860704700BFA8012242014908601B
:100EF000704700BF9001214281B0CDF800E0094960
:100F000002B440F2000340F2000240F20001FFF799
:100F100047FD01B0044A05490A600020DDF800E001
:100F200001B07047501D000069090000E00000207A
:100F300081B0CDF800E0094902B440F2000340F26C
:100F4000000240F20001FFF74DFD01B0044A0549DF
:100F50000A600020DDF800E001B07047BC1D000011
:100F6000110B0000E000002001490860704700BF3D
:100F7000A801224201490860704700BFB4812242A3
:100F800001490860704700BF8801224281B0CDF856
:100F900000E0011D0A680168C8B21146034AFFF764
:100FA00073FD0020DDF800E001B07047281E00004E
:100FB00081B0CDF800E0A9E0012905D140F220017F
:100FC0006548FFF78BFD04E040F220016248FFF71F
:100FD00091FDBBE0012905D140F208015F48FFF710
:100FE0007DFD04E040F208015C48FFF783FDADE0C1
:100FF000012905D144F200015948FFF76FFD04E0D3
:1010000044F200015648FFF775FD9FE0012905D124
:1010100040F200415148FFF761FD04E040F2004119
:101020004E48FFF767FD91E0012905D140F6000128
:101030004A48FFF753FD04E040F600014748FFF738
:1010400059FD83E0012905D141F200014348FFF732
:1010500045FD04E041F200014048FFF74BFD75E01B
:10106000012905D141F200013D48FFF737FD04E0B9
:1010700041F200013A48FFF73DFD67E0012905D143
:1010800040F600013648FFF729FD04E040F6000174
:101090003348FFF72FFD59E0012905D140F2400107
:1010A0002F48FFF71BFD04E040F240012C48FFF7FA
:1010B00021FD4BE0012905D140F220012848FFF72E
:1010C0000DFD04E040F220012548FFF713FD3DE04F
:1010D000012905D140F240012248FFF7FFFC04E05E
:1010E00040F240011F48FFF705FD2FE0012905D11F
:1010F00040F280011B48FFF7F1FC04E040F2800160
:101100001848FFF7F7FC21E0012020E000283FF419
:1011100053AF01283FF45EAF02283FF469AF0328C4
:101120003FF474AF04283FF47FAF05283FF48AAF43
:1011300006283FF495AF0728A0D00828ACD009288E
:10114000B8D00A28C4D00B28D0D0DDE70020DDF8C5
:1011500000E001B0704700BF0008014000100140EE
:1011600000140140000C014081B0CDF800E0A9E07E
:10117000012905D140F210016548FFF7AFFC04E0FA
:1011800040F210016248FFF7B5FCBBE0012905D130
:1011900040F204015F48FFF7A1FC04E040F20401C3
:1011A0005C48FFF7A7FCADE0012905D142F2000140
:1011B0005948FFF793FC04E042F200015648FFF75C
:1011C00099FC9FE0012905D140F200415148FFF709
:1011D00085FC04E040F200414E48FFF78BFC91E0B3
:1011E000012905D140F600014A48FFF777FC04E0E9
:1011F00040F600014748FFF77DFC83E0012905D157
:1012000041F200014348FFF769FC04E041F20001AC
:101210004048FFF76FFC75E0012905D140F201015C
:101220003B48FFF75BFC04E040F201013848FFF760
:1012300061FC67E0012905D140F200413648FFF723
:101240004DFC04E040F200413348FFF753FC59E005
:10125000012905D140F200212F48FFF73FFC04E0AF
:1012600040F200212C48FFF745FC4BE0012905D155
:1012700040F200112848FFF731FC04E040F2001171
:101280002548FFF737FC3DE0012905D140F2400138
:101290002248FFF723FC04E040F240011F48FFF71B
:1012A00029FC2FE0012905D140F280011B48FFF7FE
:1012B00015FC04E040F280011848FFF71BFC21E018
:1012C000012020E000283FF453AF01283FF45EAF37
:1012D00002283FF469AF03283FF474AF04283FF4B9
:1012E0007FAF05283FF48AAF06283FF495AF072863
:1012F000A0D00828ACD00928B8D00A28C4D00B2820
:10130000D0D0DDE70020DDF800E001B0704700BF7D
:10131000000801400010014000140140000C014091
:1013200081B0CDF800E0094902B440F2000340F278
:10133000000240F20001FFF733FB01B0044A054907
:101340000A600020DDF800E001B07047501D000089
:1013500069090000E000002081B0CDF800E00949F3
:1013600002B440F2000340F2000240F20001FFF735
:101370005BFB01B0044A05490A600020DDF800E08B
:1013800001B07047E41C0000C9090000E000002023
:1013900081B0CDF800E0011D0A680168C8B21146AD
:1013A000034AFFF771FB0020DDF800E001B0704751
:1013B000281E000001490860704700BF9881214243
:1013C00001490860704700BFA081224201490860BE
:1013D000704700BFA481224201490860704700BFE6
:1013E0009C81214201490860704700BFB8812242B8
:1013F00001490860704700BF8C0122420149086022
:10140000704700BF9401214201490860704700BF46
:10141000A881224201490860704700BFAC01224206
:1014200001490860704700BF8001214201490860FE
:10143000704700BFB001224282B0CDF800E001AA9F
:101440001070521C11700020074C2468A04701AA9C
:1014500002211046FFF7F2FC0120034C2468A0474C
:10146000DDF800E002B07047EC00002081B0CDF85C
:1014700000E08B4609E05846FFF788FD0AE0584631
:10148000FFF786FF06E0012004E00028F3D00128E2
:10149000F5D0F8E7DDF800E001B0704781B0CDF895
:1014A00000E00E46002183B2002805DA0121404207
:1014B00080B280B28FB201E098B28FB23146FFF7AE
:1014C0004BFC06213446B8B2002908D963184A1EDD
:1014D00092B2A21812781A70491E89B2F4E720223B
:1014E000227070B1002081B2204642181278202A62
:1014F00002D1491C89B2F8E74A1E92B283182D2204
:101500001A70DDF800E001B07047FFFF82B0CDF83F
:1015100000E002460C460020002149B20192019AE7
:10152000B2F1FF3F06D1714A11462046FFF700FC99
:101530000320D7E0012501AAD21C127802F0800214
:10154000D2B272B101AAD31C1A7882F080021A704A
:101550006A1CD3B22D222270621C1446DEB2A2464F
:1015600001E0A246EEB2019A32B9614A11465046F4
:10157000FFF7DEFB0020B5E0019AB2F1FF4F06D184
:101580005C4A11465046FFF7D3FBF0B2AAE05FFA7F
:1015900080F94FFA81F8019A4FF07E50FFF71AFC5C
:1015A00040F2000000DD012048B1019A5248FFF7E7
:1015B00027FB0190A8F101084FFA88F8EBE7019AA0
:1015C0004D48FFF707FC40F2000000DC012048B165
:1015D000019A4A48FFF714FB019008F101084FFAFD
:1015E00088F8ECE7019A5200019201AAD21C127805
:1015F0007F3AD0B201AAD31C01221A70019A82400C
:10160000019201AAD21C127830328AF800200AF125
:101610000100B8F1010F06DBB8F1060F03DC054647
:101620005FFA89F103E02E220270451C0121062099
:101630004FFA88F400B301AAD31C00221A70019A51
:101640009300019AD2180192019A5200019201AAC4
:10165000D21C127830322A706D1C51B9621E52B2FF
:1016600053B222B92E222A706D1C0121FFE75CB211
:10167000FFE7401EC0B2DDE7294660B24A1E12787D
:10168000302A01D1491EF9E74A1E12782E2A01D1CB
:10169000491EFFE710B365220A70491C002806DACC
:1016A0002D220A70491C424250B243B200E043B2BC
:1016B000D8B2DAB2092A07D90A22B0FBF2F2D2B2C2
:1016C00030320A70491CFFE70A23B0FBF3F203FB38
:1016D0001202D2B230320A70481C00E008460022E2
:1016E00002700020DDF800E002B070479A00002090
:1016F0009E000020A000002000002041CDCCCC3D69
:1017000084B0CDF800E002A80390A320FFF7B4FB5B
:101710000399087002A8401C0390A420FFF7ACFBBB
:101720000399087002A8801C0390A520FFF7A4FB72
:101730000399087002AA901C00780102501C0078DE
:1017400041EA00000102107841EA0000FFF72CFB9B
:1017500003901448019103990A46FFF797FA0199FB
:10176000114AFFF74DFA114AFFF74AFA8046104A2C
:10177000FFF746FA03900E484246FFF741FA039AF4
:10178000FFF73EFA0B4AFFF73BFA03900A48019134
:1017900003990A46FFF77AFA01990046DDF800E05E
:1017A00004B070470024F44AABAAAA3E0000C0452A
:1017B000C3F5C840FFE6DB2E0024744981B0CDF8A4
:1017C00000E05FFA81F95FFA82FA0FE05FFA8AF1CE
:1017D0005FFA89F0FFF7C8FC0DE05FFA8AF15FFA63
:1017E00089F0FFF7E5FB06E0012004E00028EDD0DA
:1017F0000128F2D0F8E7DDF800E001B07047FFFF04
:1018000081B0CDF800E003460846FFF7ADF9184671
:10181000FFF7E6F90020034C2468A047DDF800E05C
:1018200001B07047EC00002083B0CDF800E0024624
:1018300010460D228DF808200A228DF809201FE09D
:10184000FFF73EFB23E002782AB10190FFF738FB57
:101850000198401CF7E71AE002782AB10190FFF7DF
:101860002FFB0198401CF7E702AA1046FFF728FB60
:101870000DF109021046FFF723FB08E0062007E000
:101880000029DDD00129DED00229E5D0F6E70020CD
:10189000DDF800E003B0704744F67F77C0F212072E
:1018A0007F1EFDD100BF00BF00BF00BF00BF70475B
:1018B00081B0CDF800E011E00846FFF74DFD16E0DD
:1018C0000846FFF72DFD12E00846FFF731FB0EE05A
:1018D0000846FFF711FB0AE0012008E00028EBD0E2
:1018E0000128EDD02028EFD03028F1D0F4E7DDF842
:1018F00000E001B07047FFFF83B0CDF800E001A821
:101900000290A120FFF7B8FA0299087001A8401CC4
:101910000290A220FFF7B0FA0299087001AA501CA9
:101920000078010289B2107841EA0000DDF800E099
:1019300003B0704781B01548006840F001011348BA
:1019400001601349134801601048016812480140C2
:101950000E4801600D4801686FF4802001400B487B
:1019600001600C4801686FF4FE0001400948016005
:10197000064801686FF0A0500140044801604FF034
:1019800000010648016001B0704700BF001002402E
:101990000000FFF004100240FFFFF6FE2C10024092
:1019A00081B01CF8019B0BF8019BBBEB0A0FF8D12F
:1019B00001B0704781B04FF000094FF0000CBDEB53
:1019C0000A0F04DCBDEB0B0F01DBD446EA464BF8F3
:1019D000049BBBEB0A0FFAD1BCEB0A0F05DDE24614
:1019E000D9F800B00BF1040BF1E701B07047FFFF2D
:1019F00081B0CDF800E0FFF77FFF23490880FFF7B3
:101A00007FFE22490860224801881F480088411A49
:101A100089B220480088814231D91B4801881C487E
:101A20000088411A89B21B480088814227D91A4888
:101A30000121FFF7F9FE144800881849FFF72EFD31
:101A400002211648FFF7F0FE15480121FFF7ECFED2
:101A50000E4800681149FFF759FD01210F48FFF7B3
:101A6000E3FE10480221FFF7DFFE0F480221FFF7D7
:101A7000DBFE0548018806480180FFF70DFFDDF811
:101A800000E001B0704700BFA4000020A8000020C3
:101A900056000020580000205A000020AC00002012
:101AA0006A0000207A0000207E00002081B0CDF87E
:101AB00000E0012207210020FFF780FE0022022122
:101AC0000020FFF77BFE084801460020FFF7CEFC10
:101AD00042F280510120FFF7EBFEFFF7DDFEDDF85B
:101AE00000E001B0704700BFA81F000081B0CDF832
:101AF00000E017491748FFF783FE11210120FFF787
:101B00009BFC3B210220FFF797FCD9210320FFF724
:101B100093FC0F210420FFF78FFC02210520FFF723
:101B20008BFC01210B20FFF787FC0B480221FFF7FC
:101B30007BFE0A480221FFF777FE09480221FFF7E2
:101B400073FEFFF7A9FEDDF800E001B0704700BFAB
:101B5000B01F0000941E0000000000201C000020A8
:101B60003900002081B002490248016001B070478D
:101B700040190100F400002081B0FEE701B0704779
:101B800000F00EF800F068FAFFF7ECFF00F016FA2C
:101B9000FFF78CFFFFF7AAFFFFF72AFFFCE7FEE73E
:101BA00081B0CDF800E0464A464B474C47494BF6DA
:101BB0008030814206D94648006840F0020144481E
:101BC000016011E045F6C050814206D940480068E6
:101BD00040F001013E48016006E03D4801686FF0B9
:101BE000070001403A480160FFF7A4FE394803604E
:101BF00039480460394802EA00013948016002F0BE
:101C0000010040B119463648006800F00200002883
:101C100000D1F8E700E0194602F4803040B10B46ED
:101C20002F48006800F40030002800D1F8E700E0F9
:101C30000B4602F0805068B12948006840F080519E
:101C4000274801602648006800F00050002800D1B5
:101C5000F8E7FFE702F0806078B12148006840F0C3
:101C600080611F48016011461A461D48006800F057
:101C70000060002800D1F8E701E011461A4601F0A3
:101C8000807070B11648006840F08071144801609F
:101C900011461348006800F0007000B9F9E70A46E1
:101CA000FFE70C48006800F00C01900000F00C0009
:101CB000814200D0F5E7DDF800E001B0704700BFD9
:101CC0008100010502841D00440601004019010045
:101CD00000200240041002402C100240FFFF0F00C1
:101CE000001002403800000039000000FFFFFFFF35
:101CF00000000000000000000000000000000000E4
:101D000000000000000000000000000000000000D3
:101D1000000000000000000018080000180000008B
:101D200000000000000000000000000000000000B3
:101D300000000000000000000000000000000000A3
:101D40000000000000000000000000003000140847
:101D50003500000036000000FFFFFFFF000000001C
:101D60000000000000000000000000000000000073
:101D70000000000000000000000000000000000063
:101D8000000000001808000018000000000000001B
:101D90000000000000000000000000000000000043
:101DA0000000000000000000000000000000000033
:101DB000000000000000000008000008090000000A
:101DC0000A000000FFFFFFFF00000000000000000D
:101DD0000000000000000000000000000000000003
:101DE00000000000000000000000000000000000F3
:101DF00018080000180000000000000000000000AB
:101E000000000000000000000000000000000000D2
:101E100000000000000000000000000000000000C2
:101E200000000000040000002A0000002B00000059
:101E30002C000000FFFFFFFF00000000000000007A
:101E40000000000000000000000000000000000092
:101E50000000000000000000000000001808000062
:101E60001808000018080000000000000000000032
:101E70000000000000000000000000000000000062
:101E80000000000000000000000000000000000052
:101E900000112008ED0E0000810F0000750F0000FA
:101EA000690F0000151400002D140000211400001B
:101EB00009140000CD130000C1130000B513000089
:101EC000D9130000FFFFFFFFFFFFFFFFFFFFFFFF32
:101ED000FFFFFFFFFFFFFFFFFFFFFFFFFFFFFFFF12
:101EE000FFFFFFFFFFFFFFFFFFFFFFFFFFFFFFFF02
:101EF000FFFFFFFF2D2D2D2D2D2D2D2D2D2D2D2DCA
:101F00002D2D2D2D2D2D2D2D2D2D2D2D2D2D2D002E
:101F1000202020496E697469616C69736174696F0E
:101F20006E204C444331303030202020002D2D2DA8
:101F30002D2D2D2D2D2D2D2D2D2D2D2D2D2D2D2DD1
:101F40002D2D2D2D2D2D2D2D00FF00006400205056
:101F5000726F78696D6974792020203A20002049D9
:101F60006D706564616E6365204C203A20002075B9
:101F700048002D2D2D2D2D2D2D2D2D2D2D2D2D2DA3
:101F80002D2D2D2D2D2D2D2D2D2D2D2D2D004E6159
:101F90004E003000494E46000000000001020304DC
:101FA00001020304060708090700000004030000FB
:101FB000510A0000190700000204060800B5DFF806
:101FC00024B0DFF824A0DFF824C0FFF7E9FCDFF835
:101FD00020B0DFF820A0DFF820C0FFF7E1FC00BD53
:101FE000704700BF0000002055000020F41E0000D4
:101FF00056000020A40000204A1F0000FFFFFFFF42
:10200000FFFFFFFFFFFFFFFFFFFFFFFFFFFFFFFFE0
:10201000FFFFFFFFFFFFFFFFFFFFFFFFFFFFFFFFD0
:10202000FFFFFFFFFFFFFFFFFFFFFFFFFFFFFFFFC0
:10203000FFFFFFFFFFFFFFFFFFFFFFFFFFFFFFFFB0
:10204000FFFFFFFFFFFFFFFFFFFFFFFFFFFFFFFFA0
:10205000FFFFFFFFFFFFFFFF00B5DFF810B0DFF865
:1020600010A0FFF7A7FC00BD704700BF00000020D4
:1020700010010020FFFFFFFFFFFFFFFFFFFFFFFF3B
:00000001FF
