:100000003DEF09F00000000000EF00F000000000EC
:0A0010000000000000000000F3D71C
:0E001C000001A1B102D08B9E01D08B8E12008C
:0E002A000001A1B102D08B9601D08B8612008E
:0E0038000001A1B102D0899201D0898212008C
:0E0046000001A1B102D0899801D08988120072
:0E0054000001A1B102D08A9201D08A8212006E
:0E0062000001A1B102D08D9601D08D86120052
:0E0070000001A1B102D08B9801D08B88120044
:0E007E000001A1B102D08B9801D08B88120036
:0E008C000001A1B102D08B9401D08B84120030
:0E009A000001A1B102D08D9201D08D82120022
:0E00A8000001A1B102D08B9201D08B82120018
:0E00B600ACB202D00000FCD7A1C0ADFF12001A
:0E00C4000001A1B102D08B9E01D08B8E1200E4
:0E00D2000001A1B102D08B9A01D08B8A1200DE
:1000E000A1C0C9FF016A0150000A05E1000EC7B0B6
:0C00F000010E016EF8D7C9CF01F012001C
:0E00FC000001A1B102D08B9C01D08B8C1200B0
:0E010A000001A1B102D08B9601D08B861200AD
:10011800A1C06AFF016A0150000A05E1000E68B03B
:0C012800010E016EF8D76ACF01F0120042
:0E0134000001A1B102D08B9801D08B8812007F
:0E0142000001A1B102D08A9001D08A80120083
:0E0150000001A1B102D08D9001D08D8012006F
:0E015E000001A1B102D08B9C01D08B8C12004D
:0E016C000001A1B102D08B9601D08B8612004B
:0E017A000001A1B102D08A9401D08A84120043
:0E0188000001A1B102D08F9401D08F8412002B
:0E0196000001A1B102D08F9201D08F82120021
:1001A400A1C0C9FF016A0150000A05E1000EC7B0F1
:0C01B400010E016EF8D7C9CF00F0120058
:0E01C0000001A1B102D08F9001D08F801200FB
:0E01CE000001A1B102D08B9801D08B881200E5
:0E01DC000001A1B102D08B9801D08B881200D7
:0E01EA000001A1B102D08D9401D08D841200CD
:0E01F8000001A1B102D0899401D089841200C7
:0E0206000001A1B102D08B9601D08B861200B0
:0E0214000001A1B102D08B9601D08B861200A2
:0E0222000001A1B102D08B9A01D08B8A12008C
:10023000A1C06AFF016A0150000A05E1000E68B022
:0C024000010E016EF8D76ACF00F012002A
:0E024C000001A1B102D08B9801D08B88120066
:0E025A000001A1B102D08B9601D08B8612005C
:0E0268000001A1B102D08B9A01D08B8A120046
:0E0276000001A1B102D0899001D08980120050
:0E0284000001A1B102D08B9001D08B8012003E
:100292000F0121B302D00000FBD7A1C01CFF120046
:1002A200A40E306E010E316EA10E326E000E336E50
:1002B200E00E506E000E516EA10E526E000E536E85
:1002C200949A00019D51040A02E1948601D0949609
:1002D2009488C66AC79CC79E9D51C6129F51C6127A
:1002E2009E51C7129F5305E0A051000AD8B4C78C93
:0C02F20003D0A053D8A4C78CC68A120009
:1002FE00086A096A100E0C6E01340836093604506D
:10030E00085E0550D8A0053C095ED8B007D0045051
:10031E0008260550D8B0053C0926D890003601367F
:06032E000C2EEAD71200BC
:10033400B60E446E000E456EA10E466E000E476E5C
:10034400FF0E486EFF0E496E000E4A6E000E4B6E95
:10035400FF0E4C6EFF0E4D6E000E4E6E000E4F6E75
:10036400FF0E546EFF0E556E000E566E000E576E45
:10037400AC8A900EAB6E948E949C9EAA03D0AECFA2
:0603840000F0FBD712009F
:10038A00920E446E020E456EA10E466E000E476E28
:10039A00FF0E486EFF0E496E000E4A6E000E4B6E3F
:1003AA00FF0E4C6EFF0E4D6E000E4E6E000E4F6E1F
:1003BA00FF0E546EFF0E556E000E566E000E576EEF
:1003CA000F01218B900E226F98849892A4AA03D0D1
:0803DA001DCF00F0FBD712005B
:1003E200F250026EF29E0500FF6A0150FE6E00504E
:0803F200FD6E02BEF28E120046
:1003FA0021D0CF0EAF6EAC9498DF6BD0670EAF6E84
:10040A00AC9493DF66D0CF0EAF6EAC848EDF61D032
:10041A00670EAF6EAC8489DF5CD0440EAF6EAC84DD
:10042A0084DF57D0220EAF6EAC847FDF52D0060E27
:10043A00006E58D0000E006E0001991908E10050B4
:10044A00981905E1120E971902E19651C00AD1E0F6
:10045A00000E006E991908E10050981905E1250E61
:10046A00971902E19651800AC9E0000E006E9919A7
:10047A0008E10050981905E14B0E971902E19651CF
:10048A00000AC1E0000E006E991908E1005098199F
:10049A0005E1960E971902E19651000AB9E0000E9D
:1004AA00006E991908E10050981905E1E10E9719B3
:1004BA0002E19651000AB1E09951000A08E1985107
:1004CA00010A05E19751C20A02E19651000AAAE01F
:1004DA00AED7B60E406E000E416EA10E426E000EF1
:0604EA00436E006A1200DF
:1004F00021D0CF0EAF6EAC941DDF6BD0670EAF6E08
:10050000AC9418DF66D0CF0EAF6EAC8413DF61D031
:10051000670EAF6EAC840EDF5CD0440EAF6EAC8461
:1005200009DF57D0220EAF6EAC8404DF52D0060E26
:10053000006E58D0000E006E0001991908E10050BD
:10054000981905E1120E971902E19651C00AD1E0FF
:10055000000E006E991908E10050981905E1250E6A
:10056000971902E19651800AC9E0000E006E9919B0
:1005700008E10050981905E14B0E971902E19651D8
:10058000000AC1E0000E006E991908E100509819A8
:1005900005E1960E971902E19651000AB9E0000EA6
:1005A000006E991908E10050981905E1E10E9719BC
:1005B00002E19651000AB1E09951000A08E1985110
:1005C000010A05E19751C20A02E19651000AAAE028
:1005D000AED7B60E406E000E416EA10E426E000EFA
:0605E000436E006A1200E8
:1005E60021D0CF0EAF6EAC94A2DE6BD0670EAF6E8D
:1005F600AC949DDE66D0CF0EAF6EAC8498DE61D033
:10060600670EAF6EAC8493DE5CD0440EAF6EAC84E6
:100616008EDE57D0220EAF6EAC8489DE52D0060E27
:10062600006E58D0000E006E0001991908E10050C6
:10063600981905E1120E971902E19651C00AD1E008
:10064600000E006E991908E10050981905E1250E73
:10065600971902E19651800AC9E0000E006E9919B9
:1006660008E10050981905E14B0E971902E19651E1
:10067600000AC1E0000E006E991908E100509819B1
:1006860005E1960E971902E19651000AB9E0000EAF
:10069600006E991908E10050981905E1E10E9719C5
:1006A60002E19651000AB1E09951000A08E1985119
:1006B600010A05E19751C20A02E19651000AAAE031
:1006C600AED7B60E406E000E416EA10E426E000E03
:0606D600436E006A1200F1
:1006DC0038D00F0120870D0E1F6F040E1E6F218561
:1006EC004EDE7ED00F012087060E1F6F820E1E6F0E
:1006FC00218545DE75D00F012087030E1F6F400E3C
:10070C001E6F21853CDE6CD00F012087010E1F6F00
:10071C00A00E1E6F218533DE63D00F012087010EE2
:10072C001F6F150E1E6F21852ADE5AD00F012087F0
:10073C001F6B8A0E1E6F218522DE52D0060E006EB4
:10074C0058D0000E006E0001991908E1005098195C
:10075C0005E1120E971902E19651C00ABAE0000E9B
:10076C00006E991908E10050981905E1250E9719AA
:10077C0002E19651800AB6E0000E006E991908E16C
:10078C000050981905E14B0E971902E19651000A99
:10079C00B2E0000E006E991908E10050981905E1BD
:1007AC00960E971902E19651000AAEE0000E006E0B
:1007BC00991908E10050981905E1E10E971902E129
:1007CC009651000AAAE09951000A08E19851010AD1
:1007DC0005E19751C20A02E19651000AA7E0AED793
:1007EC00920E406E020E416EA10E426E000E436ED2
:0407FC00006A12007D
:100800005DD0000197B102D0929401D092840F0183
:1008100025957AD0000197B102D0969601D09686A0
:1008200073D0000197B102D0969401D096846CD019
:10083000000197B102D0949601D0948665D0000152
:1008400097B102D0949801D094885ED0000197B1FE
:1008500002D0949A01D0948A57D0000197B102D067
:10086000989001D0988050D0000197B102D0939415
:1008700001D0938449D0000197B102D0989401D05F
:1008800098840F01239540D0000197B102D098922F
:1008900001D098820F01239337D0000197B102D085
:1008A000949601D0948630D0000197B102D09498EC
:1008B00001D0948829D0010E006E28D000019651F5
:1008C000000A9FE09651010AA5E09651020AA9E0AC
:1008D0009651030AADE09651040AB1E09651050A1B
:1008E000B5E09651060AB9E09651070ABDE0965167
:1008F000080AC1E09651090AC7E096510A0ACDE0FC
:0E09000096510B0AD1E0D7D7000E006E120000
:10090E0059D0000197B102D0929201D092820F017C
:10091E00259376D0000197B102D0929801D092889B
:10092E006FD0000197B102D0969201D0968268D016
:10093E00000197B102D0949601D0948661D0000147
:10094E0097B102D0949801D094885AD0000197B1F3
:10095E0002D0949A01D0948A53D0000197B102D05C
:10096E00949401D094844CD0000197B102D093920C
:10097E0001D0938245D0000197B102D0949E01D050
:10098E00948E3ED0000197B102D0949C01D0948CED
:10099E0037D0000197B102D0949601D0948630D012
:1009AE00000197B102D0949801D0948829D0010EFD
:1009BE00006E28D000019651000AA3E09651010A5C
:1009CE00A9E09651020AADE09651030AB1E09651A4
:1009DE00040AB5E09651050AB9E09651060ABDE043
:1009EE009651070AC1E09651080AC5E09651090AC8
:1009FE00C9E096510A0ACDE096510B0AD1E0D7D73D
:060A0E00000E006E120054
:100A140059D0000197B102D0929001D092800F0179
:100A2400259176D0000197B102D0949001D09480A2
:100A34006FD0000197B102D0969001D0968068D013
:100A4400000197B102D0949601D0948661D0000140
:100A540097B102D0949801D094885AD0000197B1EC
:100A640002D0949A01D0948A53D0000197B102D055
:100A7400949201D094824CD0000197B102D093900B
:100A840001D0938045D0000197B102D0949E01D04B
:100A9400948E3ED0000197B102D0949C01D0948CE6
:100AA40037D0000197B102D0949601D0948630D00B
:100AB400000197B102D0949801D0948829D0010EF6
:100AC400006E28D000019651000AA3E09651010A55
:100AD400A9E09651020AADE09651030AB1E096519D
:100AE400040AB5E09651050AB9E09651060ABDE03C
:100AF4009651070AC1E09651080AC5E09651090AC1
:100B0400C9E096510A0ACDE096510B0AD1E0D7D735
:060B1400000E006E12004D
:100B1A0096C0F6FF97C0F7FF98C0F8FF0900F5CF17
:100B2A009DF0040E00019625F66E000E9721F76ED1
:100B3A00000E9821F86E0900F5CF9EF0080E962552
:100B4A00F66E000E9721F76E000E9821F86E0900D6
:100B5A00F5CF9FF00C0E9625F66E000E9721F76ED4
:100B6A00000E9821F86E0900F5CFA0F051EC01F0C3
:060B7A00000E006E1200E7
:100B800096C0F6FF97C0F7FF98C0F8FF0900F5CFB1
:100B90009DF0040E00019625F66E000E9721F76E6B
:100BA000000E9821F86E0900F5CF9EF0080E9625EC
:100BB000F66E000E9721F76E000E9821F86E090070
:100BC000F5CF9FF00C0E9625F66E000E9721F76E6E
:100BD000000E9821F86E0900F5CFA0F051EC01F05D
:060BE000000E006E120081
:100BE60096C0F6FF97C0F7FF98C0F8FF0900F5CF4B
:100BF6009DF0040E00019625F66E000E9721F76E05
:100C0600000E9821F86E0900F5CF9EF0080E962585
:100C1600F66E000E9721F76E000E9821F86E090009
:100C2600F5CF9FF00C0E9625F66E000E9721F76E07
:100C3600000E9821F86E0900F5CFA0F051EC01F0F6
:060C4600000E006E12001A
:100C4C00300E00019625006E000E9721016E000EED
:100C5C009821026E1C0E0024F66E000E0120F76E19
:100C6C00000E0220F86E0900F5CF34F00900F5CF24
:100C7C0035F00900F5CF36F00900F5CF37F0080E46
:100C8C009625F66E000E9721F76E000E9821F86EE1
:100C9C000900F5CF38F00900F5CF39F00900F5CF90
:0A0CAC003AF00900F5CF3BF012000A
:100CB60096C09AF097C09BF098C000F099C001F0DA
:100CC600010E0001985F000E995B0050011015E0BF
:100CD6002EC0E1FF2FC0E2FFE66A2CC000F02DC057
:100CE60001F0F1EC01F09AC0E1FF9BC0E2FF00C009
:0C0CF600E6FF00019A4B9B2BDFD7120099
:100D020042C0E1FF43C0E2FF96C0E9FF97C0EAFF9D
:100D1200EECFE6FF40C000F041C001F0F1EC01F07F
:040D2200006A120051
:100D260096C0F6FF97C0F7FF98C0F8FF0900F5CF09
:100D36003CF00900F5CF3DF00900F5CF3EF0090083
:100D4600F5CF3FF0040E00019625F66E000E9721B2
:100D5600F76E000E9821F86E0900F5CF2CF0090009
:100D6600F5CF2DF00900F5CF2EF00900F5CF2FF0C5
:020D7600120069
:100D780000019A6B050E9A5D0AE29A519825E16E78
:100D8800000E9921E26E200EE66E9A2BF3D79A5147
:100D98009825E16E000E9921E26EE66A9A079A514B
:100DA80098259B6F000E99219C6F0A0E046E000E09
:100DB800056E96C000F097C001F07FEC01F008C006
:100DC80000F009C001F0300E00269BC0E1FF9CC076
:100DD800E2FF00C0E6FF0A0E046E000E056E96C024
:100DE80000F097C001F07FEC01F000C096F001C060
:100DF80097F0000E011802E1000E001801E102D080
:060E08009A07CDD712008D
:100E0E0096C09AF097C09BF098C000F099C001F080
:100E1E00010E0001985F000E995B0050011014E066
:100E2E003EC0E1FF3FC0E2FF9AC0E9FF9BC0EAFF70
:100E3E00EECFE6FF3CC000F03DC001F0F1EC01F05A
:0A0E4E0000019A4B9B2BE0D7120025
:100E58000001926B936B8CC094F08DC095F0800E5E
:100E68008D19006E800E005C02E1000E8C5D0BE2B5
:100E7800010E926F000E936F8C510008946F8DC015
:100E880095F0000E955794C096F095C097F08EC0D7
:100E980098F08FC099F06CDF060E906F000E916F7E
:100EA800000E006E9151005C02E19051000819E2B9
:100EB80090518E25E16E91518F21E26E010E905D69
:100EC800006E000E9159016E00508E25E96E01509A
:100ED8008F21EA6EEECFE6FF010E905F000E915B68
:100EE800DFD78EC0E1FF8FC0E2FF200EE66E925181
:100EF80093111AE0906B916B90518E25E96E915188
:100F08008F21EA6EEE50200A03E1904B912BF4D723
:100F1800010E905F000E915B90518E25E16E91510C
:0A0F28008F21E26E2D0EE66E12001E
:100F320015D08DC096F08EC097F06BDD1AD08DC0A3
:100F420096F08EC097F0E2DC14D08DC096F08EC081
:100F520097F055DC0ED0010E006E0BD000018C51C3
:100F6200000AE7E08C51010AEAE08C51020AEDE046
:040F7200F2D71200A0
:100F7600800E00018C118D6F3AC0E1FF3BC0E2FF8D
:100F8600E66A38C000F039C001F0F1EC01F08D0ED0
:100F96000001966F000E976F010E986F000E996F05
:100FA60033DF8E0E966F000E976F010E986F000E50
:100FB600996F7EDE3AC0E1FF3BC0E2FF010EE66EAE
:100FC60038C000F039C001F0F1EC01F08EC000F03D
:020FD600120007
:100FD8001BD08DC096F08EC097F08FC098F0FFDDC3
:100FE8001ED08DC096F08EC097F08FC098F0C4DDEB
:100FF80016D08DC096F08EC097F08FC098F089DD1E
:101008000ED0010E006E0BD000018C51000AE1E0F9
:101018008C51010AE6E08C51020AEBE0F2D712008B
:101028008FC096F090C097F091C098F078DE8CC091
:1010380096F08DC097F08EC098F004DE3AC0E1FFBC
:101048003BC0E2FFE66A38C000F039C001F0F1ECBD
:0410580001F0120091
:10105C00090E0B6E1E0E0C6EE40E0D6E0D2EFED7D1
:0C106C000C2EFCD70B2EFAD7000012004F
:101078008CC08FF08DC090F00D0E0001916F0A0E9C
:10108800926F35D08FC096F090C097F036DE3AD088
:101098008FC0E9FF90C0EAFFEE5209E08FC096F0DA
:1010A80090C097F02ADE00018F4B902BF1D72AD001
:1010B8008FC0E9FF90C0EAFFEE5209E08FC096F0BA
:1010C80090C097F01ADE00018F4B902BF1D70001EA
:1010D800910E966F000E976F10DE920E0001966FBC
:1010E800000E976F0ADE0ED0060E006E0CD00001BF
:1010F8008E51000AC7E08E51010ACAE08E51020AD9
:08110800D7E0F2D7006A1200E3
:10111000520E0B6E2B0E0C6E000E0D6E0D2EFED7AA
:0C1120000C2EFCD70B2EFAD7000012009A
:10112C002FD08DC096F08EC097F08FC098F090C0E5
:10113C0099F0FDEC01F032D08DC096F08EC097F096
:10114C008FC098F090C099F0F3EC02F027D08DC0CE
:10115C0096F08EC097F08FC098F090C099F06EEC1E
:10116C0003F01CD08DC096F08EC097F08FC098F015
:10117C0090C099F078EC02F011D0010E006E0ED0F8
:10118C0000018C51000ACDE08C51010AD5E08C5144
:0E119C00020ADDE08C51100AE5E0EFD71200E8
:1011AA0000018C6B070E8D6F010E8E6FBDDE000184
:1011BA008C6B020E8D6F8E6BB7DE00018C6BFF0E8F
:1011CA008D6F120E8E6F000E8F6F01DF010E8C6F06
:1011DA00800E8D6F250E8E6F000E8F6F906FA1DFC0
:0411EA0038DF1200D8
:1011EE000900F5CFE6FF0006FBE10106F9E112006A
:1011FE00880E00018C6F120E8D6F000E8E6F0F0E0B
:10120E008F6F130E906F000E916F07DF150E00019A
:10121E008C6F000E8D6F020E8E6F27DF18DF12009F
:10122E00000E006E800E001000018C6F9DDE00C05F
:10123E0058F0000E596E250E00018C6F000E8D6F4A
:10124E00010E8E6F12DF58C08CF059C08DF05A0E01
:10125E0000018E6F000E8F6FF8DD5A0E8C6F000E30
:0C126E008D6F020E8E6F01DF4CDF12004E
:0E127A008CEC09F095DFBEDFD5DFFED7FFD785
:1013180010EE15F0170E006E010E016EE80EF66E57
:0E132800120EF76E000EF86EF7EC08F01200D1
:101288007602A1008402A1005001A1006C01A10016
:10129800CE01A100D200A100A800A1004201A10036
:1012A800C400A100FC00A1000A01A1007E00A10069
:1012B800FFFFFFFFFFFFFFFFFFFFFFFFFFFFFFFF36
:1012C800FFFFFFFFFFFFFFFFFFFFFFFFFFFFFFFF26
:1012D800FFFFFFFFFFFFFFFFFFFFFFFFFFFFFFFF16
:1012E80020496E697469616C697A6174696F6E000E
:0712F800204944203A2000C8
:1012FF0002000000000000000000000001000000DC
:08130F00E000A100A401A1000F
:020000040030CA
:0E00000015137F7CF98B91FFFFC0FFE0FF40DE
:00000001FF
